:020000040800F2
:10000000002800205D170008ED160008F316000810
:10001000F9160008FF160008051700080000000088
:100020000000000000000000000000000B170008A6
:100030001717000800000000231700082F170008FA
:10004000A5170008A5170008A5170008A5170008A0
:10005000A5170008A5170008A5170008A517000890
:10006000A5170008A5170008A5170008A517000880
:10007000A5170008A5170008A5170008A517000870
:10008000A5170008A5170008A5170008A517000860
:10009000A5170008A5170008A5170008A517000850
:1000A000A5170008A5170008A5170008A517000840
:1000B0003D170008A517000800000000A51700085C
:1000C000A51700080000000000000000A5170008A8
:1000D00000000000A5170008A51700080000000098
:1000E000A5170008A5170008A517000800000000C4
:1000F0000000000000000000000000000000000000
:0C01000000000000000000005FF808F1A3
:10010C0010B5054C237833B9044B13B10448AFF345
:10011C0000800123237010BD60000020000000004F
:10012C00FC2D000808B5034B1BB103490348AFF382
:10013C00008008BD0000000064000020FC2D0008B9
:10014C0080B400AF064B1B68012B04D1044B00227A
:10015C001A60012300E000231846BD4680BC70479E
:10016C007C00002080B400AF064B1B68012B04D12F
:10017C00044B00221A60012300E000231846BD4600
:10018C0080BC70478000002080B500AF244B1B68FA
:10019C00244A1360244B1B68214A13604FF480716E
:1001AC00224801F0E5FD03461A461F4B1A601C4B12
:1001BC001A681D4B1B689A422FD1194B1A68194BA0
:1001CC001B689A4229D1174B1A68194B1B689A4223
:1001DC000FD0144B1B68164A1360154B1B68002B71
:1001EC001BD1144B4FF4FA721A60134B01221A6094
:1001FC0013E0104B1B68013B0E4A13600D4B1B6840
:10020C00002B0AD10B4B4FF4FA721A60084B1B6887
:10021C00002B02D1084B01221A6000BF80BD00BF29
:10022C000C000020100000200000002000080140FD
:10023C0014000020300000207C00002080B500AFAE
:10024C00244B1B68244A1360244B1B68214A1360FF
:10025C004FF40071224801F08BFD03461A461F4BE8
:10026C001A601C4B1A681D4B1B689A422FD1194BF4
:10027C001A68194B1B689A4229D1174B1A68194BEB
:10028C001B689A420FD0144B1B68164A1360154B0F
:10029C001B68002B1BD1144B4FF4FA721A60134BD2
:1002AC0001221A6013E0104B1B68013B0E4A1360CD
:1002BC000D4B1B68002B0AD10B4B4FF4FA721A60D2
:1002CC00084B1B68002B02D1084B01221A6000BF9F
:1002DC0080BD00BF180000201C000020040000207E
:1002EC000008014020000020300000208000002089
:1002FC0080B500AF244B1B68244A1360244B1B6849
:10030C00214A13604FF48061224801F031FD03460D
:10031C001A461F4B1A601C4B1A681D4B1B689A42DD
:10032C002FD1194B1A68194B1B689A4229D1174BBC
:10033C001A68194B1B689A420FD0144B1B68164A4B
:10034C001360154B1B68002B1BD1144B4FF4FA7226
:10035C001A60134B01221A6013E0104B1B68013B0F
:10036C000E4A13600D4B1B68002B0AD10B4B4FF43C
:10037C00FA721A60084B1B68002B02D1084B012241
:10038C001A6000BF80BD00BF2400002028000020A0
:10039C0008000020000801402C0000203000002044
:1003AC008400002080B483B000AF78607B68002BA1
:1003BC0001D140232DE07B68012B01D1F92328E0EA
:1003CC007B68022B01D1242323E07B68032B01D112
:1003DC0030231EE07B68042B01D1192319E07B68C4
:1003EC00052B01D1122314E07B68062B01D10223CB
:1003FC000FE07B68072B01D178230AE07B68082B80
:10040C0001D1002305E07B68092B01D1102300E00A
:10041C007F2318460C37BD4680BC704780B584B02E
:10042C0000AF786039607868FFF7BCFF0346FB7259
:10043C003868FFF7B7FF0346BB720023FB6038E058
:10044C00FA7A8021FB6841FA03F31340002B06D0A3
:10045C0001224FF48041204801F0A1FC05E000226C
:10046C004FF480411C4801F09AFCBA7A8021FB6859
:10047C0041FA03F31340002B06D001224FF4004144
:10048C00154801F08CFC05E000224FF400411248A5
:10049C0001F085FC01224FF480510F4801F07FFCE4
:1004AC0000224FF480510C4801F079FCFB680133B9
:1004BC00FB60FB68072BC3DD01224FF4005106489B
:1004CC0001F06DFC00224FF40051034801F067FC71
:1004DC0000BF1037BD4680BD0008014080B582B01A
:1004EC0000AF78607B68092B00F2808101A252F882
:1004FC0023F000BF2905000871050008B9050008A4
:10050C00010600084906000891060008D9060008F3
:10051C002107000869070008B10700080022012123
:10052C00B44801F03CFC00220221B24801F037FC37
:10053C0000220421AF4801F032FC00220821AD4812
:10054C0001F02DFC00221021AA4801F028FC002209
:10055C002021A84801F023FC01224021A54801F0EC
:10056C001EFC43E101220121A24801F018FC0022EB
:10057C000221A04801F013FC002204219D4801F047
:10058C000EFC012208219B4801F009FC01221021DC
:10059C00984801F004FC01222021964801F0FFFB51
:1005AC0001224021934801F0FAFB1FE100220121B6
:1005BC00904801F0F4FB002202218E4801F0EFFB81
:1005CC00012204218B4801F0EAFB00220821894812
:1005DC0001F0E5FB00221021864801F0E0FB01222E
:1005EC002021844801F0DBFB00224021814801F0EE
:1005FC00D6FBFBE0002201217E4801F0D0FB00225B
:10060C0002217C4801F0CBFB00220421794801F047
:10061C00C6FB00220821774801F0C1FB0122102102
:10062C00744801F0BCFB01222021724801F0B7FB99
:10063C00002240216F4801F0B2FBD7E001220121DA
:10064C006C4801F0ACFB002202216A4801F0A7FBC8
:10065C0000220421674801F0A2FB01220821654811
:10066C0001F09DFB01221021624801F098FB002251
:10067C002021604801F093FB002240215D4801F0ED
:10068C008EFBB3E0002201215A4801F088FB0122C5
:10069C000221584801F083FB00220421554801F047
:1006AC007EFB00220821534801F079FB0122102126
:1006BC00504801F074FB002220214E4801F06FFBE2
:1006CC00002240214B4801F06AFB8FE000220121FF
:1006DC00484801F064FB01220221464801F05FFB0F
:1006EC0000220421434801F05AFB00220821414812
:1006FC0001F055FB002210213E4801F050FB002276
:10070C0020213C4801F04BFB00224021394801F0EC
:10071C0046FB6BE000220121364801F040FB002231
:10072C000221344801F03BFB00220421314801F046
:10073C0036FB012208212F4801F031FB0122102148
:10074C002C4801F02CFB012220212A4801F027FB28
:10075C0001224021274801F022FB47E00022012121
:10076C00244801F01CFB00220221224801F017FB57
:10077C00002204211F4801F012FB002208211D4811
:10078C0001F00DFB002210211A4801F008FB002299
:10079C002021184801F003FB00224021154801F0EC
:1007AC00FEFA23E000220121124801F0F8FA00229F
:1007BC000221104801F0F3FA002204210D4801F047
:1007CC00EEFA002208210B4801F0E9FA012210216F
:1007DC00084801F0E4FA00222021064801F0DFFA73
:1007EC0000224021034801F0DAFA00BF00BF0837AD
:1007FC00BD4680BD000C014080B582B000AF786072
:10080C007B68092B00F2BC8101A252F823F000BFD7
:10081C004508000899080008ED080008410900087F
:10082C0095090008E90900083D0A0008910A00082A
:10083C00E50A0008390B000800228021D24801F09B
:10084C00AEFA00224FF48071CF4801F0A8FA0022D2
:10085C004FF40071CC4801F0A2FA00224FF48061F1
:10086C00C94801F09CFA00224FF40061C64801F01F
:10087C0096FA00224FF48051C34801F090FA0122FD
:10088C004FF40051C04801F08AFA79E1012280212D
:10089C00BD4801F084FA00224FF48071BA4801F08F
:1008AC007EFA00224FF40071B74801F078FA012269
:1008BC004FF48061B44801F072FA01224FF40061E8
:1008CC00B14801F06CFA01224FF48051AE4801F0AE
:1008DC0066FA01224FF40051AB4801F060FA4FE187
:1008EC0000228021A84801F05AFA00224FF48071AE
:1008FC00A54801F054FA01224FF40071A24801F00E
:10090C004EFA00224FF480619F4801F048FA002211
:10091C004FF400619C4801F042FA01224FF48051DF
:10092C00994801F03CFA00224FF40051964801F02E
:10093C0036FA25E100228021934801F030FA00229A
:10094C004FF48071904801F02AFA00224FF40071A4
:10095C008D4801F024FA00224FF480618A4801F09E
:10096C001EFA01224FF40061874801F018FA0122A7
:10097C004FF48051844801F012FA00224FF40051D8
:10098C00814801F00CFAFBE0012280217E4801F045
:10099C0006FA00224FF480717B4801F000FA002225
:1009AC004FF40071784801F0FAF901224FF480619C
:1009BC00754801F0F4F901224FF40061724801F01E
:1009CC00EEF900224FF480516F4801F0E8F9002253
:1009DC004FF400516C4801F0E2F9D1E00022802183
:1009EC00694801F0DCF901224FF48071664801F08E
:1009FC00D6F900224FF40071634801F0D0F90022BF
:100A0C004FF48061604801F0CAF901224FF4006193
:100A1C005D4801F0C4F900224FF480515A4801F0AE
:100A2C00BEF900224FF40051574801F0B8F9A7E085
:100A3C0000228021544801F0B2F901224FF4807158
:100A4C00514801F0ACF900224FF400714E4801F00E
:100A5C00A6F900224FF480614B4801F0A0F9002266
:100A6C004FF40061484801F09AF900224FF480518C
:100A7C00454801F094F900224FF40051424801F02E
:100A8C008EF97DE0002280213F4801F088F9002298
:100A9C004FF480713C4801F082F900224FF4007150
:100AAC00394801F07CF901224FF48061364801F09D
:100ABC0076F901224FF40061334801F070F90122FC
:100ACC004FF48051304801F06AF901224FF4005183
:100ADC002D4801F064F953E0002280212A4801F0EE
:100AEC005EF900224FF48071274801F058F900227A
:100AFC004FF40071244801F052F900224FF4806148
:100B0C00214801F04CF900224FF400611E4801F01D
:100B1C0046F900224FF480511B4801F040F90022A5
:100B2C004FF40051184801F03AF929E000228021D5
:100B3C00154801F034F900224FF48071124801F08D
:100B4C002EF900224FF400710F4801F028F9002211
:100B5C004FF480610C4801F022F901224FF400613E
:100B6C00094801F01CF900224FF48051064801F0AD
:100B7C0016F900224FF40051034801F010F900BFA0
:100B8C0000BF0837BD4680BD000C014080B500AFEA
:100B9C009F4B1B68013B032B00F2948001A252F87F
:100BAC0023F000BFC10B0008FF0B0008450C000828
:100BBC008B0C000801220221964801F0F0F801226A
:100BCC000821944801F0EBF801220421914801F02E
:100BDC00E6F88F4B03221A608F4B1B68642202FBD2
:100BEC0003F3184600F058FC8B4B1B688B4A1360C0
:100BFC006FE000220221874801F0D1F80122082180
:100C0C00844801F0CCF801220421824801F0C7F895
:100C1C00834B1B68012B57D17D4B03221A607E4BF3
:100C2C001B68642202FB03F3184600F035FC7A4B78
:100C3C001B687A4A136047E001220221754801F0D3
:100C4C00AEF800220821734801F0A9F80122042112
:100C5C00704801F0A4F8724B1B68012B36D16C4B19
:100C6C0004221A606F4B1B68642202FB03F31846C4
:100C7C0000F012FC6B4B1B68684A136026E00122E3
:100C8C000221644801F08BF801220821614801F02F
:100C9C0086F8002204215F4801F081F8604B1B6844
:100CAC00012B15D15A4B02221A605F4B1B68642230
:100CBC0002FB03F3184600F0EFFB5B4B1B68574A33
:100CCC00136005E000BF04E000BF02E000BF00E0DD
:100CDC0000BF564B1B68013B032B00F2938001A213
:100CEC0052F823F0010D00083F0D0008850D000897
:100CFC00CB0D000801221021464801F050F80122CA
:100D0C004021444801F04BF801222021414801F0D8
:100D1C0046F8464B02221A60434B1B68444A136048
:100D2C00414B1B68642202FB03F3184600F0C8FB1E
:100D3C0083E000221021374801F031F801224021D4
:100D4C00344801F02CF801222021324801F027F818
:100D5C00384B1B68012B57D1344B03221A602E4B96
:100D6C001B68642202FB03F3184600F0A9FB2A4B14
:100D7C001B682F4A136047E001221021254801F01F
:100D8C000EF800224021234801F009F8012220210D
:100D9C00204801F004F8274B1B68012B36D1234B5C
:100DAC0004221A601F4B1B68642202FB03F31846D3
:100DBC0000F086FB1B4B1B681D4A136026E00122CA
:100DCC001021144800F0EBFF01224021114800F0E3
:100DDC00E6FF002220210F4800F0E1FF154B1B68B5
:100DEC00012B29D1114B02221A600F4B1B68642274
:100DFC0002FB03F3184600F063FB0B4B1B680C4A19
:100E0C00136019E000BF18E000BF16E000BF14E04B
:100E1C0088000020000801403C000020AC000020AD
:100E2C004000002038000020340000208C000020FE
:100E3C00A80000204400002000BF3A4B1B68002B88
:100E4C006CD0394B1B68002B6AD0384B1B68012BBC
:100E5C002CD1642000F048FB324B1B68092B05DCBD
:100E6C00304B1B6819460020FFF7D8FA2D4B1B6836
:100E7C00092B16DD2B4B1B682D4A82FB031292109B
:100E8C00DB17D01A274B1A68294B83FB02139910D6
:100E9C00D317C91A0B469B000B445B00D11AFFF702
:100EAC00BDFA204B1B68013B1E4A1360214B1B688B
:100EBC00012B36D1642000F02BFB1A4B1B68092B3D
:100ECC0007DC194B1B681846FFF796FC0020FFF750
:100EDC0005FB144B1B68092B1ADD134B1A68144BBA
:100EEC0083FB02139910D317C91A0B469B000B44B2
:100EFC005B00D11A0846FFF77FFC0B4B1B680C4AB2
:100F0C0082FB03129210DB17D31A1846FFF7E6FA8E
:100F1C00054B1B68013B044A136002E000BF00E074
:100F2C0000BF80BDAC000020A800002048000020BD
:100F3C00676666664C00002080B500AF0122022176
:100F4C000E4800F02CFF012210210C4800F027FF66
:100F5C0001220821094800F022FF01224021074804
:100F6C0000F01DFF01220421044800F018FF0122AB
:100F7C002021024800F013FF00BF80BD0008014093
:100F8C0080B500AFAE4B1B68013B162B00F24E81B7
:100F9C0001A252F823F000BF01100008391200081A
:100FAC0039120008391200083912000839120008E9
:100FBC0039120008391200083912000839120008D9
:100FCC0039120008391200083912000839120008C9
:100FDC0039120008391200083912000839120008B9
:100FEC00391200082310000845100008EB10000807
:100FFC008F110008FFF7A4F80346012B04D1904B86
:10100C0014221A60FFF798FF8E4B01221A608E4B48
:10101C0001221A6011E1FFF7B9FDFFF791F80346C1
:10102C00012B40F00581864B15221A60FFF784FFD7
:10103C00864B00221A60FBE0854B1B68012B0AD102
:10104C00322000F079FA0221824800F0C0FE102113
:10105C00804800F0BCFEFFF785F80346012B04D155
:10106C007A4B1B680133794A13600220FFF7C4FBEB
:10107C000020FFF733FA754B1B68092B05DC734B0B
:10108C001B6819460020FFF7C9F9704B1B68092B28
:10109C0016DD6E4B1B68704A82FB03129210DB1735
:1010AC00D01A6A4B1A686C4B83FB02139910D31736
:1010BC00C91A0B469B000B445B00D11AFFF7AEF923
:1010CC00FFF73EF80346012B40F0B4805C4B162230
:1010DC001A60FFF731FF614B00221A60AAE05C4BEB
:1010EC001B68012B0AD1322000F026FA0421594842
:1010FC0000F06DFE2021574800F069FEFFF732F832
:10110C000346012B04D1554B1B680133534A136022
:10111C000320FFF771FB0020FFF7E0F94F4B1B6832
:10112C00092B05DC4D4B1B6819460020FFF776F99F
:10113C004A4B1B68092B16DD484B1B68464A82FB41
:10114C0003129210DB17D01A444B1A68424B83FBE4
:10115C0002139910D317C91A0B469B000B445B0062
:10116C00D11AFFF75BF9FEF7EBFF0346012B63D1B6
:10117C00334B17221A60FFF7DFFE394B00221A603F
:10118C005AE0334B1B68012B0AD1322000F0D4F902
:10119C000821304800F01BFE40212E4800F017FEBD
:1011AC00FEF7E0FF0346012B04D12D4B1B680133E6
:1011BC002B4A13600420FFF71FFB0020FFF78EF96A
:1011CC00274B1B68092B05DC254B1B681946002097
:1011DC00FFF724F9224B1B68092B16DD204B1B68EB
:1011EC001D4A82FB03129210DB17D01A1C4B1A6893
:1011FC00194B83FB02139910D317C91A0B469B008A
:10120C000B445B00D11AFFF709F9FEF799FF03466F
:10121C00012B04D10A4B14221A60FFF78DFE094BE7
:10122C0001221A60084B01221A6006E000BF04E09C
:10123C0000BF02E000BF00E000BF00BF80BD00BFE8
:10124C0090000020880000208C000020340000203A
:10125C0050000020000801406766666638000020D8
:10126C003C00002080B500AF00F098FA00F012F8B6
:10127C0000F098F800F04AF8044801F0F9F9044B32
:10128C0001221A60FFF77CFEFCE700BFB0000020D3
:10129C009000002080B590B000AF07F11803282211
:1012AC000021184601F09CFD3B1D00221A605A607B
:1012BC009A60DA601A610223BB610123BB621023BE
:1012CC00FB6200237B6307F11803184600F098FDBE
:1012DC000346002B01D000F0D9F80F237B600023CC
:1012EC00BB600023FB6000233B6100237B613B1D43
:1012FC000021184601F004F80346002B01D000F041
:10130C00C5F800BF4037BD4680BD000080B586B033
:10131C0000AF07F1080300221A605A609A60DA6085
:10132C003B4600221A605A601D4B4FF080421A60F7
:10133C001B4B41F63F725A60194B00229A60184BB6
:10134C000922DA60164B00221A61154B00229A61B1
:10135C00134801F03DF90346002B01D000F096F83C
:10136C004FF48053BB6007F1080319460C4801F099
:10137C00D3FA0346002B01D000F088F800233B6021
:10138C0000237B603B461946054801F09BFC034655
:10139C00002B01D000F07AF800BF1837BD4680BD95
:1013AC00B000002080B586B000AF07F10803002222
:1013BC001A605A609A60DA60294B9B69284A43F09C
:1013CC0004039361264B9B6903F004037B607B68E9
:1013DC00234B9B69224A43F008039361204B9B6982
:1013EC0003F008033B603B6800224FF27E011D486E
:1013FC0000F0D5FC002243F6FF711B4800F0CFFC37
:10140C004FF27E03BB600123FB6000233B61022390
:10141C007B6107F108031946124800F02FFB43F6D5
:10142C00FF73BB600123FB6000233B6102237B61E4
:10143C0007F1080319460C4800F020FB4FF4E06359
:10144C00BB600023FB6001233B6107F108031946D5
:10145C00044800F013FB00BF1837BD4680BD00BF29
:10146C000010024000080140000C014080B582B021
:10147C0000AF786000F074F8FEF786FEFEF7DEFE33
:10148C00FEF736FF00BF0837BD4680BD80B400AF05
:10149C0072B600BFFEE7000080B483B000AF786086
:1014AC00054A7B681360054B00221A6000BF0C379D
:1014BC00BD4680BC704700BF940000204000002057
:1014CC0080B483B000AF7860054A7B681360054B2D
:1014DC0000221A6000BF0C37BD4680BC704700BFAD
:1014EC00980000204400002080B483B000AF7860E6
:1014FC00054A7B681360054B00221A6000BF0C374D
:10150C00BD4680BC704700BF9C00002048000020F6
:10151C0080B483B000AF7860054A7B681360054BDC
:10152C0000221A6000BF0C37BD4680BC704700BF5C
:10153C00A00000204C00002080B483B000AF786085
:10154C00054A7B681360054B00221A6000BF0C37FC
:10155C00BD4680BC704700BFA40000205000002096
:10156C0080B400AF294B1B68002B0BDD274B1B688D
:10157C00013B264A1360254B1B68002B02DC244BD5
:10158C0001221A60234B1B68002B0BDD214B1B68BF
:10159C00013B204A13601F4B1B68002B02DC1E4BC7
:1015AC0001221A601D4B1B68002B0BDD1B4B1B68AB
:1015BC00013B1A4A1360194B1B68002B02DC184BB9
:1015CC0001221A60174B1B68002B0BDD154B1B6897
:1015DC00013B144A1360134B1B68002B02DC124BAB
:1015EC0001221A60114B1B68002B0BDD0F4B1B6883
:1015FC00013B0E4A13600D4B1B68002B02DC0C4B9D
:10160C0001221A6000BFBD4680BC704794000020C8
:10161C004000002098000020440000209C00002086
:10162C0048000020A00000204C000020A400002056
:10163C005000002080B485B000AF154B9B69144A54
:10164C0043F001039361124B9B6903F00103BB60F0
:10165C00BB680F4BDB690E4A43F08053D3610C4BD4
:10166C00DB6903F080537B607B680A4B5B68FB6033
:10167C00FB6823F0E063FB60FB6843F08063FB6076
:10168C00044AFB68536000BF1437BD4680BC7047EA
:10169C00001002400000014080B584B000AF7860BB
:1016AC007B681B68B3F1804F13D10C4BDB690B4A81
:1016BC0043F00103D361094BDB6903F00103FB60C9
:1016CC00FB68002200211C2000F0A1F91C2000F076
:1016DC00BAF900BF1037BD4680BD00BF00100240F4
:1016EC0080B400AFFEE780B400AFFEE780B400AF7B
:1016FC00FEE780B400AFFEE780B400AFFEE780B435
:10170C0000AF00BFBD4680BC704780B400AF00BFC7
:10171C00BD4680BC704780B400AF00BFBD4680BCE6
:10172C00704780B500AF00F07FF800BF80BD0000AF
:10173C0080B500AF024800F0E7FF00BF80BD00BFDE
:10174C00B000002080B400AF00BFBD4680BC704725
:10175C000C480D490D4A002302E0D458C450043300
:10176C00C4188C42F9D30A4A0A4C002301E01360D6
:10177C000432A242FBD3FFF7E5FF01F00DFBFFF7AC
:10178C0071FD704700000020600000203C2E000816
:10179C0060000020FC000020FEE7000080B500AFD8
:1017AC00084B1B68074A43F010031360032000F03A
:1017BC0023F90F2000F008F8FFF73CFF0023184630
:1017CC0080BD00BF0020024080B582B000AF7860C1
:1017DC00124B1A68124B1B7819464FF47A73B3FBF1
:1017EC00F1F3B2FBF3F3184600F03BF90346002B80
:1017FC0001D001230EE07B680F2B0AD800227968F8
:10180C004FF0FF3000F003F9064A7B6813600023A9
:10181C0000E0012318460837BD4680BD5400002067
:10182C005C0000205800002080B400AF054B1B78F2
:10183C001A46054B1B681344034A136000BFBD4690
:10184C0080BC70475C000020F800002080B400AF22
:10185C00024B1B681846BD4680BC7047F800002040
:10186C0080B485B000AF78607B6803F00703FB6041
:10187C000C4BDB68BB60BA684FF6FF031340BB60D0
:10188C00FB681A02BB68134343F0BF6343F4003395
:10189C00BB60044ABB68D36000BF1437BD4680BC34
:1018AC00704700BF00ED00E080B400AF044BDB6874
:1018BC001B0A03F007031846BD4680BC704700BFE7
:1018CC0000ED00E080B483B000AF0346FB7197F9E4
:1018DC000730002B0BDBFB7903F01F02064997F94D
:1018EC0007305B09012000FA02F241F8232000BF07
:1018FC000C37BD4680BC704700E100E080B483B07B
:10190C0000AF03463960FB7197F90730002B0ADBF7
:10191C003B68DAB20C4997F907301201D2B20B448A
:10192C0083F800230AE03B68DAB20849FB7903F03C
:10193C000F03043B1201D2B20B441A7600BF0C37D2
:10194C00BD4680BC704700BF00E100E000ED00E048
:10195C0080B489B000AFF860B9607A60FB6803F0BE
:10196C000703FB61FB69C3F10703042B28BF0423A6
:10197C00BB61FB690433062B02D9FB69033B00E016
:10198C0000237B614FF0FF32BB6902FA03F3DA43A9
:10199C00BB681A407B699A404FF0FF317B6901FAB2
:1019AC0003F3D9437B680B40134318462437BD46D9
:1019BC0080BC704780B582B000AF78607B68013B1B
:1019CC00B3F1807F01D301230FE00A4A7B68013B0E
:1019DC0053600F214FF0FF30FFF790FF054B0022B3
:1019EC009A60044B07221A60002318460837BD463C
:1019FC0080BD00BF10E000E080B582B000AF786021
:101A0C007868FFF72DFF00BF0837BD4680BD80B555
:101A1C0086B000AF0346B9607A60FB7300237B612C
:101A2C00FFF742FF78617A68B9687869FFF790FF31
:101A3C00024697F90F3011461846FFF75FFF00BFBB
:101A4C001837BD4680BD80B582B000AF0346FB7130
:101A5C0097F907301846FFF735FF00BF0837BD462A
:101A6C0080BD80B582B000AF78607868FFF7A2FFC8
:101A7C00034618460837BD4680BD000080B48BB0C5
:101A8C0000AF7860396000237B6200233B6248E141
:101A9C0001227B6A02FA03F3FB613B681B68FA695B
:101AAC001340BB61BA69FB699A4240F037813B68CD
:101ABC005B68A34A93425ED0A14A934275D8A14A6F
:101ACC00934258D09F4A93426FD89F4A934252D028
:101ADC009D4A934269D89D4A93424CD09B4A93426B
:101AEC0063D89B4A934246D0994A93425DD8122BB5
:101AFC002AD8122B59D801A252F823F0831B0008C4
:101B0C005D1B00086F1B0008B11B0008B71B000809
:101B1C00B71B0008B71B0008B71B0008B71B000851
:101B2C00B71B0008B71B0008B71B0008B71B000841
:101B3C00B71B0008B71B0008B71B0008B71B000831
:101B4C00651B0008791B0008824A934213D02CE0D5
:101B5C003B68DB683B6229E03B68DB6804333B6233
:101B6C0024E03B68DB6808333B621FE03B68DB68C2
:101B7C000C333B621AE03B689B68002B02D10423B8
:101B8C003B6213E03B689B68012B05D108233B6249
:101B9C007B68FA691A6109E008233B627B68FA6981
:101BAC005A6103E000233B6200E000BFBB69FF2BDE
:101BBC0001D87B6801E07B6804337B61BB69FF2B38
:101BCC0002D87B6A9B0002E07B6A083B9B003B616E
:101BDC007B691A680F213B6901FA03F3DB431A4056
:101BEC00396A3B6901FA03F31A437B691A603B6853
:101BFC005B6803F08053002B00F09080564B9B6980
:101C0C00554A43F001039361534B9B6903F0010365
:101C1C00BB60BB68514A7B6A9B08023352F8233085
:101C2C00FB607B6A03F003039B000F2202FA03F3B1
:101C3C00DB43FA681340FB607B68494A93420DD042
:101C4C007B68484A934207D07B68474A934201D14C
:101C5C00022304E0032302E0012300E000237A6A5C
:101C6C0002F0030292009340FA681343FB603B4975
:101C7C007B6A9B080233FA6841F823203B685B6857
:101C8C0003F48033002B06D0384B1A683749BB69F4
:101C9C0013430B6006E0354B1A68BB69DB433349D1
:101CAC0013400B603B685B6803F40033002B06D0D9
:101CBC002E4B5A682D49BB6913434B6006E02B4BE6
:101CCC005A68BB69DB43294913404B603B685B682E
:101CDC0003F48013002B06D0244B9A682349BB696C
:101CEC0013438B6006E0214B9A68BB69DB431F49A9
:101CFC0013408B603B685B6803F40013002B06D029
:101D0C001A4BDA681949BB691343CB6006E0174BD1
:101D1C00DA68BB69DB4315491340CB607B6A01333E
:101D2C007B623B681A687B6A22FA03F3002B7FF410
:101D3C00AFAE00BF00BF2C37BD4680BC704700BFA4
:101D4C0000003210000031100000221000002110A1
:101D5C0000001210000011100010024000000140A1
:101D6C0000080140000C014000100140000401403B
:101D7C0080B485B000AF78600B467B807B689A6836
:101D8C007B881340002B02D00123FB7301E000235E
:101D9C00FB73FB7B18461437BD4680BC704780B480
:101DAC0083B000AF78600B467B8013467B707B78EA
:101DBC00002B03D07A887B681A6103E07B881A04B5
:101DCC007B681A6100BF0C37BD4680BC704780B47D
:101DDC0085B000AF78600B467B807B68DB68FB606E
:101DEC007A88FB6813401A04FB68D9437B880B4044
:101DFC001A437B681A6100BF1437BD4680BC70471C
:101E0C0080B586B000AF78607B68002B01D10123D0
:101E1C006CE27B681B6803F00103002B00F08780E9
:101E2C00924B5B6803F00C03042B0CD08F4B5B685C
:101E3C0003F00C03082B12D18C4B5B6803F480333A
:101E4C00B3F5803F0BD1894B1B6803F40033002B97
:101E5C006CD07B685B68002B68D1012346E27B6801
:101E6C005B68B3F5803F06D1804B1B687F4A43F417
:101E7C00803313602EE07B685B68002B0CD17B4BAE
:101E8C001B687A4A23F480331360784B1B68774ABB
:101E9C0023F4802313601DE07B685B68B3F5A02FEF
:101EAC000CD1724B1B68714A43F4802313606F4B47
:101EBC001B686E4A43F4803313600BE06B4B1B685A
:101ECC006A4A23F480331360684B1B68674A23F417
:101EDC00802313607B685B68002B13D0FFF7B6FC84
:101EEC00386108E0FFF7B2FC02463B69D31A642B59
:101EFC0001D90323FAE15D4B1B6803F40033002B7B
:101F0C00F0D014E0FFF7A2FC386108E0FFF79EFC6C
:101F1C0002463B69D31A642B01D90323E6E1534BE8
:101F2C001B6803F40033002BF0D100E000BF7B688A
:101F3C001B6803F00203002B63D04C4B5B6803F06F
:101F4C000C03002B0BD0494B5B6803F00C03082BE4
:101F5C001CD1464B5B6803F48033002B16D1434BEA
:101F6C001B6803F00203002B05D07B681B69012B57
:101F7C0001D00123BAE13D4B1B6823F0F8027B68CA
:101F8C005B69DB00394913430B603AE07B681B69E2
:101F9C00002B20D0364B01221A60FFF757FC38611A
:101FAC0008E0FFF753FC02463B69D31A022B01D918
:101FBC0003239BE12D4B1B6803F00203002BF0D095
:101FCC002A4B1B6823F0F8027B685B69DB0027490E
:101FDC0013430B6015E0264B00221A60FFF736FC0A
:101FEC00386108E0FFF732FC02463B69D31A022B3A
:101FFC0001D903237AE11D4B1B6803F00203002B6C
:10200C00F0D17B681B6803F00803002B3AD07B6887
:10201C009B69002B19D0174B01221A60FFF716FC95
:10202C00386108E0FFF712FC02463B69D31A022B19
:10203C0001D903235AE10D4B5B6A03F00203002B19
:10204C00F0D0012000F0A6FA1CE00A4B00221A6026
:10205C00FFF7FCFB38610FE0FFF7F8FB02463B692A
:10206C00D31A022B08D9032340E100BF0010024011
:10207C0000004242800442429E4B5B6A03F0020322
:10208C00002BE9D17B681B6803F00403002B00F0E4
:10209C00A6800023FB75974BDB6903F08053002B64
:1020AC000DD1944BDB69934A43F08053D361914B30
:1020BC00DB6903F08053BB60BB680123FB758E4B5F
:1020CC001B6803F48073002B18D18B4B1B688A4A56
:1020DC0043F480731360FFF7B9FB386108E0FFF736
:1020EC00B5FB02463B69D31A642B01D90323FDE0EF
:1020FC00814B1B6803F48073002BF0D07B68DB688A
:10210C00012B06D17B4B1B6A7A4A43F00103136205
:10211C002DE07B68DB68002B0CD1764B1B6A754A73
:10212C0023F001031362734B1B6A724A23F00403FE
:10213C0013621CE07B68DB68052B0CD16D4B1B6AB2
:10214C006C4A43F0040313626A4B1B6A694A43F0FE
:10215C00010313620BE0674B1B6A664A23F0010311
:10216C001362644B1B6A634A23F0040313627B689B
:10217C00DB68002B15D0FFF769FB38610AE0FFF72D
:10218C0065FB02463B69D31A41F28832934201D96E
:10219C000323ABE0574B1B6A03F00203002BEED07A
:1021AC0014E0FFF753FB38610AE0FFF74FFB0246E0
:1021BC003B69D31A41F28832934201D9032395E04B
:1021CC004C4B1B6A03F00203002BEED1FB7D012B61
:1021DC0005D1484BDB69474A23F08053D3617B68B8
:1021EC00DB69002B00F08180424B5B6803F00C0331
:1021FC00082B61D07B68DB69022B46D13F4B002258
:10220C001A60FFF723FB386108E0FFF71FFB02465B
:10221C003B69D31A022B01D9032367E0354B1B68AA
:10222C0003F00073002BF0D17B681B6AB3F5803F81
:10223C0008D1304B5B6823F400327B689B682D49D6
:10224C0013434B602B4B5B6823F474127B68196A45
:10225C007B685B6A0B43274913434B60274B012276
:10226C001A60FFF7F3FA386108E0FFF7EFFA02465D
:10227C003B69D31A022B01D9032337E01D4B1B6892
:10228C0003F00073002BF0D02FE01C4B00221A60DF
:10229C00FFF7DCFA386108E0FFF7D8FA02463B6931
:1022AC00D31A022B01D9032320E0124B1B6803F035
:1022BC000073002BF0D118E07B68DB69012B01D196
:1022CC00012313E00B4B5B68FB60FB6803F480326B
:1022DC007B681B6A9A4206D1FB6803F470127B6818
:1022EC005B6A9A4201D0012300E00023184618379C
:1022FC00BD4680BD001002400070004060004242AC
:10230C0080B584B000AF786039607B68002B01D158
:10231C000123D0E06A4B1B6803F007033A689A422A
:10232C0010D9674B1B6823F0070265493B681343C0
:10233C000B60634B1B6803F007033A689A4201D0A9
:10234C000123B8E07B681B6803F00203002B20D04C
:10235C007B681B6803F00403002B05D0594B5B68AA
:10236C00584A43F4E06353607B681B6803F008032E
:10237C00002B05D0534B5B68524A43F460535360B7
:10238C00504B5B6823F0F0027B689B684D4913430C
:10239C004B607B681B6803F00103002B40D07B680B
:1023AC005B68012B07D1474B1B6803F40033002BF0
:1023BC0015D101237FE07B685B68022B07D1414B71
:1023CC001B6803F00073002B09D1012373E03D4B14
:1023DC001B6803F00203002B01D101236BE0394B86
:1023EC005B6823F003027B685B68364913434B60E0
:1023FC00FFF72CFAF8600AE0FFF728FA0246FB68B0
:10240C00D31A41F28832934201D9032353E02D4B66
:10241C005B6803F00C027B685B689B009A42EBD113
:10242C00274B1B6803F007033A689A4210D2244BDF
:10243C001B6823F0070222493B6813430B60204BB7
:10244C001B6803F007033A689A4201D0012332E07B
:10245C007B681B6803F00403002B08D0194B5B68E6
:10246C0023F4E0627B68DB68164913434B607B689E
:10247C001B6803F00803002B09D0124B5B6823F494
:10248C0060527B681B69DB000E4913434B6000F004
:10249C0021F802460B4B5B681B0903F00F030A493A
:1024AC00CB5C22FA03F3094A1360094B1B681846EC
:1024BC00FFF78AF9002318461037BD4680BD00BFD0
:1024CC000020024000100240242E0008540000207E
:1024DC005800002090B48AB000AF2A4B3C1D0FCBA3
:1024EC0084E80F0040F201233B800023FB610023B2
:1024FC00BB6100237B6200237B6100233B62224B88
:10250C005B68FB61FB6903F00C03042B02D0082B06
:10251C0003D02DE01D4B3B622DE0FB699B0C03F0BF
:10252C000F0307F12802134413F8243C7B61FB6969
:10253C0003F48033002B13D0134B5B685B0C03F05C
:10254C00010307F12802134413F8283CBB617B6993
:10255C000E4A02FB03F2BB69B2FBF3F37B6204E0AD
:10256C007B690B4A02FB03F37B627B6A3B6202E0F2
:10257C00064B3B6200BF3B6A18462837BD4690BCF1
:10258C00704700BF142E00080010024000127A00A1
:10259C0000093D0080B485B000AF78600A4B1B6821
:1025AC000A4AA2FB03235B0A7A6802FB03F3FB6073
:1025BC0000BFFB685A1EFA60002BF9D100BF00BFA8
:1025CC001437BD4680BC704754000020D34D6210B8
:1025DC0080B582B000AF78607B68002B01D10123FD
:1025EC0041E07B6893F83D30DBB2002B06D17B6871
:1025FC00002283F83C207868FFF74EF87B680222B3
:10260C0083F83D207B681A687B68043319461046B2
:10261C0000F06AFA7B68012283F846207B6801226D
:10262C0083F83E207B68012283F83F207B680122DF
:10263C0083F840207B68012283F841207B680122CB
:10264C0083F842207B68012283F843207B680122B7
:10265C0083F844207B68012283F845207B680122A3
:10266C0083F83D20002318460837BD4680BD000086
:10267C0080B485B000AF78607B6893F83D30DBB2F6
:10268C00012B01D0012335E07B68022283F83D2029
:10269C007B681B68DA687B681B6842F00102DA60B1
:1026AC007B681B68164A934209D07B681B68B3F1A0
:1026BC00804F04D07B681B68124A934211D17B680F
:1026CC001B689B6803F00703FB60FB68062B10D0AC
:1026DC007B681B681A687B681B6842F001021A60F1
:1026EC0007E07B681B681A687B681B6842F0010274
:1026FC001A60002318461437BD4680BC704700BFD3
:10270C00002C01400004004080B582B000AF78601E
:10271C007B681B681B6903F00203022B22D17B68C8
:10272C001B68DB6803F00203022B1BD17B681B6860
:10273C006FF002021A617B6801221A777B681B68B2
:10274C009B6903F00303002B03D0786800F0B1F908
:10275C0005E0786800F0A4F9786800F0B3F97B68BC
:10276C0000221A777B681B681B6903F00403042B97
:10277C0022D17B681B68DB6803F00403042B1BD19C
:10278C007B681B686FF004021A617B6802221A775F
:10279C007B681B689B6903F44073002B03D078683B
:1027AC0000F087F905E0786800F07AF9786800F0B5
:1027BC0089F97B6800221A777B681B681B6903F018
:1027CC000803082B22D17B681B68DB6803F0080325
:1027DC00082B1BD17B681B686FF008021A617B68A1
:1027EC0004221A777B681B68DB6903F00303002B58
:1027FC0003D0786800F05DF905E0786800F050F9D6
:10280C00786800F05FF97B6800221A777B681B6898
:10281C001B6903F01003102B22D17B681B68DB684B
:10282C0003F01003102B1BD17B681B686FF0100298
:10283C001A617B6808221A777B681B68DB6903F4D2
:10284C004073002B03D0786800F033F905E078680A
:10285C0000F026F9786800F035F97B6800221A77C9
:10286C007B681B681B6903F00103012B0ED17B688D
:10287C001B68DB6803F00103012B07D17B681B6825
:10288C006FF001021A617868FEF7F0FD7B681B6837
:10289C001B6903F08003802B0ED17B681B68DB68FF
:1028AC0003F08003802B07D17B681B686FF08002DC
:1028BC001A61786800F067FA7B681B681B6903F083
:1028CC004003402B0ED17B681B68DB6803F0400390
:1028DC00402B07D17B681B686FF040021A61786847
:1028EC0000F0F9F87B681B681B6903F02003202BB0
:1028FC000ED17B681B68DB6803F02003202B07D10B
:10290C007B681B686FF020021A61786800F032FA5D
:10291C0000BF0837BD4680BD80B584B000AF78607D
:10292C0039607B6893F83C30012B01D10223B3E072
:10293C007B68012283F83C207B68022283F83D20CF
:10294C007B681B689B68FB60FB6823F07703FB606C
:10295C00FB6823F47F43FB607B681B68FA689A6012
:10296C003B681B68B3F5005F3ED0B3F5005F00F227
:10297C008780B3F5805F00F08580B3F5805F7FD8EA
:10298C00702B1AD0702B7BD8602B50D0602B77D843
:10299C00502B3CD0502B73D8402B58D0402B6FD899
:1029AC00302B64D0302B6BD8202B60D0202B67D8E9
:1029BC00002B5CD0102B5AD062E07B6818683B6807
:1029CC0099683B685A683B68DB6800F05CF97B6887
:1029DC001B689B68FB60FB6843F07703FB607B68BC
:1029EC001B68FA689A604EE07B6818683B689968C7
:1029FC003B685A683B68DB6800F045F97B681B68EC
:102A0C009A687B681B6842F480429A603BE07B6862
:102A1C0018683B6859683B68DB681A4600F0BCF8DC
:102A2C007B681B685021184600F013F92BE07B687B
:102A3C0018683B6859683B68DB681A4600F0DAF89E
:102A4C007B681B686021184600F003F91BE07B686B
:102A5C0018683B6859683B68DB681A4600F09CF8BC
:102A6C007B681B684021184600F0F3F80BE07B688C
:102A7C001A683B681B681946104600F0EAF802E039
:102A8C0000BF00E000BF7B68012283F83D207B681B
:102A9C00002283F83C20002318461037BD4680BD29
:102AAC0080B483B000AF786000BF0C37BD4680BCEB
:102ABC00704780B483B000AF786000BF0C37BD4660
:102ACC0080BC704780B483B000AF786000BF0C3717
:102ADC00BD4680BC704780B483B000AF786000BF47
:102AEC000C37BD4680BC704780B485B000AF7860B1
:102AFC0039607B681B68FB607B68254A934207D072
:102B0C007B68B3F1804F03D07B68224A934208D193
:102B1C00FB6823F07003FB603B685B68FA68134347
:102B2C00FB607B681A4A934207D07B68B3F1804FF5
:102B3C0003D07B68174A934208D1FB6823F4407397
:102B4C00FB603B68DB68FA681343FB60FB6823F0AF
:102B5C0080023B685B691343FB607B68FA681A6010
:102B6C003B689A687B68DA623B681A687B689A6291
:102B7C007B68074A934203D13B681A697B681A63E6
:102B8C007B6801225A6100BF1437BD4680BC704778
:102B9C00002C01400004004080B487B000AFF86006
:102BAC00B9607A60FB681B6A7B61FB681B6A23F067
:102BBC000102FB681A62FB689B693B613B6923F06D
:102BCC00F0033B617B681B013A6913433B617B69F2
:102BDC0023F00A037B617A69BB6813437B61FB6852
:102BEC003A699A61FB687A691A6200BF1C37BD4664
:102BFC0080BC704780B487B000AFF860B9607A6071
:102C0C00FB681B6A23F01002FB681A62FB689B6965
:102C1C007B61FB681B6A3B617B6923F470437B61BE
:102C2C007B681B037A6913437B613B6923F0A00328
:102C3C003B61BB681B013A6913433B61FB687A69D2
:102C4C009A61FB683A691A6200BF1C37BD4680BCAA
:102C5C00704780B485B000AF786039607B689B6842
:102C6C00FB60FB6823F07003FB603A68FB6813435E
:102C7C0043F00703FB607B68FA689A6000BF143767
:102C8C00BD4680BC704780B487B000AFF860B960B7
:102C9C007A603B60FB689B687B617B6923F47F43B4
:102CAC007B613B681A027B681A43BB6813437A69E1
:102CBC0013437B61FB687A699A6000BF1C37BD4681
:102CCC0080BC704780B485B000AF786039607B6899
:102CDC0093F83C30012B01D1022341E07B680122A7
:102CEC0083F83C207B68022283F83D207B681B68BC
:102CFC005B68FB607B681B689B68BB60FB6823F0B0
:102D0C007003FB603B681B68FA681343FB607B68CD
:102D1C001B68FA685A607B681B68144A934209D096
:102D2C007B681B68B3F1804F04D07B681B68104A2A
:102D3C0093420CD1BB6823F08003BB603B685B689B
:102D4C00BA681343BB607B681B68BA689A607B687F
:102D5C00012283F83D207B68002283F83C2000236D
:102D6C0018461437BD4680BC704700BF002C01408C
:102D7C000004004080B483B000AF786000BF0C3713
:102D8C00BD4680BC704780B483B000AF786000BF94
:102D9C000C37BD4680BC704770B500260C4D0D4CF1
:102DAC00641BA410A64209D100F022F800260A4D9B
:102DBC000A4C641BA410A64205D170BD55F8043B07
:102DCC0098470136EEE755F8043B98470136F2E791
:102DDC00342E0008342E0008342E0008382E00083B
:102DEC0003460244934200D1704703F8011BF9E7F4
:102DFC00F8B500BFF8BC08BC9E467047F8B500BFDC
:082E0C00F8BC08BC9E467047AB
:102E140002030405060708090A0B0C0D0E0F101017
:102E24000000000000000000010203040607080976
:042E34003101000860
:042E38000D01000880
:102E3C000100000001000000010000000100000082
:102E4C000100000001000000010000000100000072
:102E5C000100000001000000010000000100000062
:102E6C00F401000005000000020000000300000057
:102E7C000100000001000000010000000100000042
:102E8C00010000000024F40010000000010000000C
:040000050800175D7B
:00000001FF
